{
    "_format": "hh-sol-artifact-1",
    "contractName": "PolygonENS",
    "sourceName": "contracts/Domains.sol",
    "abi": [
        {
            "inputs": [
                {
                    "internalType": "string",
                    "name": "_tld",
                    "type": "string"
                }
            ],
            "stateMutability": "payable",
            "type": "constructor"
        },
        {
            "anonymous": false,
            "inputs": [
                {
                    "indexed": true,
                    "internalType": "address",
                    "name": "owner",
                    "type": "address"
                },
                {
                    "indexed": true,
                    "internalType": "address",
                    "name": "approved",
                    "type": "address"
                },
                {
                    "indexed": true,
                    "internalType": "uint256",
                    "name": "tokenId",
                    "type": "uint256"
                }
            ],
            "name": "Approval",
            "type": "event"
        },
        {
            "anonymous": false,
            "inputs": [
                {
                    "indexed": true,
                    "internalType": "address",
                    "name": "owner",
                    "type": "address"
                },
                {
                    "indexed": true,
                    "internalType": "address",
                    "name": "operator",
                    "type": "address"
                },
                {
                    "indexed": false,
                    "internalType": "bool",
                    "name": "approved",
                    "type": "bool"
                }
            ],
            "name": "ApprovalForAll",
            "type": "event"
        },
        {
            "anonymous": false,
            "inputs": [
                {
                    "indexed": true,
                    "internalType": "address",
                    "name": "from",
                    "type": "address"
                },
                {
                    "indexed": true,
                    "internalType": "address",
                    "name": "to",
                    "type": "address"
                },
                {
                    "indexed": true,
                    "internalType": "uint256",
                    "name": "tokenId",
                    "type": "uint256"
                }
            ],
            "name": "Transfer",
            "type": "event"
        },
        {
            "inputs": [
                {
                    "internalType": "address",
                    "name": "to",
                    "type": "address"
                },
                {
                    "internalType": "uint256",
                    "name": "tokenId",
                    "type": "uint256"
                }
            ],
            "name": "approve",
            "outputs": [],
            "stateMutability": "nonpayable",
            "type": "function"
        },
        {
            "inputs": [
                {
                    "internalType": "address",
                    "name": "owner",
                    "type": "address"
                }
            ],
            "name": "balanceOf",
            "outputs": [
                {
                    "internalType": "uint256",
                    "name": "",
                    "type": "uint256"
                }
            ],
            "stateMutability": "view",
            "type": "function"
        },
        {
            "inputs": [
                {
                    "internalType": "string",
                    "name": "",
                    "type": "string"
                }
            ],
            "name": "domains",
            "outputs": [
                {
                    "internalType": "address",
                    "name": "",
                    "type": "address"
                }
            ],
            "stateMutability": "view",
            "type": "function"
        },
        {
            "inputs": [
                {
                    "internalType": "string",
                    "name": "_name",
                    "type": "string"
                }
            ],
            "name": "getAddress",
            "outputs": [
                {
                    "internalType": "address",
                    "name": "",
                    "type": "address"
                }
            ],
            "stateMutability": "view",
            "type": "function"
        },
        {
            "inputs": [
                {
                    "internalType": "uint256",
                    "name": "tokenId",
                    "type": "uint256"
                }
            ],
            "name": "getApproved",
            "outputs": [
                {
                    "internalType": "address",
                    "name": "",
                    "type": "address"
                }
            ],
            "stateMutability": "view",
            "type": "function"
        },
        {
            "inputs": [
                {
                    "internalType": "string",
                    "name": "_name",
                    "type": "string"
                }
            ],
            "name": "getRecord",
            "outputs": [
                {
                    "internalType": "string",
                    "name": "",
                    "type": "string"
                }
            ],
            "stateMutability": "view",
            "type": "function"
        },
        {
            "inputs": [
                {
                    "internalType": "address",
                    "name": "owner",
                    "type": "address"
                },
                {
                    "internalType": "address",
                    "name": "operator",
                    "type": "address"
                }
            ],
            "name": "isApprovedForAll",
            "outputs": [
                {
                    "internalType": "bool",
                    "name": "",
                    "type": "bool"
                }
            ],
            "stateMutability": "view",
            "type": "function"
        },
        {
            "inputs": [],
            "name": "name",
            "outputs": [
                {
                    "internalType": "string",
                    "name": "",
                    "type": "string"
                }
            ],
            "stateMutability": "view",
            "type": "function"
        },
        {
            "inputs": [
                {
                    "internalType": "uint256",
                    "name": "tokenId",
                    "type": "uint256"
                }
            ],
            "name": "ownerOf",
            "outputs": [
                {
                    "internalType": "address",
                    "name": "",
                    "type": "address"
                }
            ],
            "stateMutability": "view",
            "type": "function"
        },
        {
            "inputs": [
                {
                    "internalType": "string",
                    "name": "name",
                    "type": "string"
                }
            ],
            "name": "price",
            "outputs": [
                {
                    "internalType": "uint256",
                    "name": "",
                    "type": "uint256"
                }
            ],
            "stateMutability": "pure",
            "type": "function"
        },
        {
            "inputs": [
                {
                    "internalType": "string",
                    "name": "",
                    "type": "string"
                }
            ],
            "name": "records",
            "outputs": [
                {
                    "internalType": "string",
                    "name": "",
                    "type": "string"
                }
            ],
            "stateMutability": "view",
            "type": "function"
        },
        {
            "inputs": [
                {
                    "internalType": "string",
                    "name": "name",
                    "type": "string"
                }
            ],
            "name": "register",
            "outputs": [],
            "stateMutability": "payable",
            "type": "function"
        },
        {
            "inputs": [
                {
                    "internalType": "address",
                    "name": "from",
                    "type": "address"
                },
                {
                    "internalType": "address",
                    "name": "to",
                    "type": "address"
                },
                {
                    "internalType": "uint256",
                    "name": "tokenId",
                    "type": "uint256"
                }
            ],
            "name": "safeTransferFrom",
            "outputs": [],
            "stateMutability": "nonpayable",
            "type": "function"
        },
        {
            "inputs": [
                {
                    "internalType": "address",
                    "name": "from",
                    "type": "address"
                },
                {
                    "internalType": "address",
                    "name": "to",
                    "type": "address"
                },
                {
                    "internalType": "uint256",
                    "name": "tokenId",
                    "type": "uint256"
                },
                {
                    "internalType": "bytes",
                    "name": "data",
                    "type": "bytes"
                }
            ],
            "name": "safeTransferFrom",
            "outputs": [],
            "stateMutability": "nonpayable",
            "type": "function"
        },
        {
            "inputs": [
                {
                    "internalType": "address",
                    "name": "operator",
                    "type": "address"
                },
                {
                    "internalType": "bool",
                    "name": "approved",
                    "type": "bool"
                }
            ],
            "name": "setApprovalForAll",
            "outputs": [],
            "stateMutability": "nonpayable",
            "type": "function"
        },
        {
            "inputs": [
                {
                    "internalType": "string",
                    "name": "_name",
                    "type": "string"
                },
                {
                    "internalType": "string",
                    "name": "_record",
                    "type": "string"
                }
            ],
            "name": "setRecord",
            "outputs": [],
            "stateMutability": "nonpayable",
            "type": "function"
        },
        {
            "inputs": [
                {
                    "internalType": "bytes4",
                    "name": "interfaceId",
                    "type": "bytes4"
                }
            ],
            "name": "supportsInterface",
            "outputs": [
                {
                    "internalType": "bool",
                    "name": "",
                    "type": "bool"
                }
            ],
            "stateMutability": "view",
            "type": "function"
        },
        {
            "inputs": [],
            "name": "symbol",
            "outputs": [
                {
                    "internalType": "string",
                    "name": "",
                    "type": "string"
                }
            ],
            "stateMutability": "view",
            "type": "function"
        },
        {
            "inputs": [],
            "name": "tld",
            "outputs": [
                {
                    "internalType": "string",
                    "name": "",
                    "type": "string"
                }
            ],
            "stateMutability": "view",
            "type": "function"
        },
        {
            "inputs": [
                {
                    "internalType": "uint256",
                    "name": "tokenId",
                    "type": "uint256"
                }
            ],
            "name": "tokenURI",
            "outputs": [
                {
                    "internalType": "string",
                    "name": "",
                    "type": "string"
                }
            ],
            "stateMutability": "view",
            "type": "function"
        },
        {
            "inputs": [
                {
                    "internalType": "address",
                    "name": "from",
                    "type": "address"
                },
                {
                    "internalType": "address",
                    "name": "to",
                    "type": "address"
                },
                {
                    "internalType": "uint256",
                    "name": "tokenId",
                    "type": "uint256"
                }
            ],
            "name": "transferFrom",
            "outputs": [],
            "stateMutability": "nonpayable",
            "type": "function"
        }
    ],
    "bytecode": "0x6080604052604051806108a0016040528061086b81526020016200454961086b9139600990805190602001906200003892919062000287565b506040518060400160405280600d81526020017f3c2f746578743e3c2f7376673e00000000000000000000000000000000000000815250600a90805190602001906200008692919062000287565b5060405162004db438038062004db48339818101604052810190620000ac9190620004d4565b6040518060400160405280601281526020017f4e696e6a61204e616d65205365727669636500000000000000000000000000008152506040518060400160405280600381526020017f4e4e53000000000000000000000000000000000000000000000000000000000081525081600090805190602001906200013092919062000287565b5080600190805190602001906200014992919062000287565b50505080600890805190602001906200016492919062000287565b50620001b16040518060400160405280600e81526020017f454e53204465706c6f7965643a2000000000000000000000000000000000000081525082620001b860201b620014081760201c565b5062000622565b6200025a8282604051602401620001d192919062000582565b6040516020818303038152906040527f4b5c4277000000000000000000000000000000000000000000000000000000007bffffffffffffffffffffffffffffffffffffffffffffffffffffffff19166020820180517bffffffffffffffffffffffffffffffffffffffffffffffffffffffff83818316178352505050506200025e60201b60201c565b5050565b60008151905060006a636f6e736f6c652e6c6f679050602083016000808483855afa5050505050565b8280546200029590620005ec565b90600052602060002090601f016020900481019282620002b9576000855562000305565b82601f10620002d457805160ff191683800117855562000305565b8280016001018555821562000305579182015b8281111562000304578251825591602001919060010190620002e7565b5b50905062000314919062000318565b5090565b5b808211156200033357600081600090555060010162000319565b5090565b6000604051905090565b600080fd5b600080fd5b600080fd5b600080fd5b6000601f19601f8301169050919050565b7f4e487b7100000000000000000000000000000000000000000000000000000000600052604160045260246000fd5b620003a08262000355565b810181811067ffffffffffffffff82111715620003c257620003c162000366565b5b80604052505050565b6000620003d762000337565b9050620003e5828262000395565b919050565b600067ffffffffffffffff82111562000408576200040762000366565b5b620004138262000355565b9050602081019050919050565b60005b838110156200044057808201518184015260208101905062000423565b8381111562000450576000848401525b50505050565b60006200046d6200046784620003ea565b620003cb565b9050828152602081018484840111156200048c576200048b62000350565b5b6200049984828562000420565b509392505050565b600082601f830112620004b957620004b86200034b565b5b8151620004cb84826020860162000456565b91505092915050565b600060208284031215620004ed57620004ec62000341565b5b600082015167ffffffffffffffff8111156200050e576200050d62000346565b5b6200051c84828501620004a1565b91505092915050565b600081519050919050565b600082825260208201905092915050565b60006200054e8262000525565b6200055a818562000530565b93506200056c81856020860162000420565b620005778162000355565b840191505092915050565b600060408201905081810360008301526200059e818562000541565b90508181036020830152620005b4818462000541565b90509392505050565b7f4e487b7100000000000000000000000000000000000000000000000000000000600052602260045260246000fd5b600060028204905060018216806200060557607f821691505b602082108114156200061c576200061b620005bd565b5b50919050565b613f1780620006326000396000f3fe60806040526004361061012a5760003560e01c80636352211e116100ab578063bf40fac11161006f578063bf40fac114610428578063c1880a9814610465578063c87b56dd1461048e578063e985e9c5146104cb578063f2c298be14610508578063fe2c6198146105245761012a565b80636352211e1461033157806370a082311461036e57806395d89b41146103ab578063a22cb465146103d6578063b88d4fde146103ff5761012a565b806323b872dd116100f257806323b872dd1461023a57806326449235146102635780632d551432146102a057806342842e0e146102cb578063541e771d146102f45761012a565b806301ffc9a71461012f57806306fdde031461016c578063081812fc14610197578063095ea7b3146101d457806311dd8845146101fd575b600080fd5b34801561013b57600080fd5b506101566004803603810190610151919061277e565b610561565b60405161016391906127c6565b60405180910390f35b34801561017857600080fd5b50610181610643565b60405161018e919061287a565b60405180910390f35b3480156101a357600080fd5b506101be60048036038101906101b991906128d2565b6106d5565b6040516101cb9190612940565b60405180910390f35b3480156101e057600080fd5b506101fb60048036038101906101f69190612987565b61071b565b005b34801561020957600080fd5b50610224600480360381019061021f9190612a2c565b610833565b604051610231919061287a565b60405180910390f35b34801561024657600080fd5b50610261600480360381019061025c9190612a79565b6108e6565b005b34801561026f57600080fd5b5061028a60048036038101906102859190612bfc565b610946565b6040516102979190612940565b60405180910390f35b3480156102ac57600080fd5b506102b561098f565b6040516102c2919061287a565b60405180910390f35b3480156102d757600080fd5b506102f260048036038101906102ed9190612a79565b610a1d565b005b34801561030057600080fd5b5061031b60048036038101906103169190612bfc565b610a3d565b604051610328919061287a565b60405180910390f35b34801561033d57600080fd5b50610358600480360381019061035391906128d2565b610af3565b6040516103659190612940565b60405180910390f35b34801561037a57600080fd5b5061039560048036038101906103909190612c45565b610ba5565b6040516103a29190612c81565b60405180910390f35b3480156103b757600080fd5b506103c0610c5d565b6040516103cd919061287a565b60405180910390f35b3480156103e257600080fd5b506103fd60048036038101906103f89190612cc8565b610cef565b005b34801561040b57600080fd5b5061042660048036038101906104219190612da9565b610d05565b005b34801561043457600080fd5b5061044f600480360381019061044a9190612a2c565b610d67565b60405161045c9190612940565b60405180910390f35b34801561047157600080fd5b5061048c60048036038101906104879190612e2c565b610db2565b005b34801561049a57600080fd5b506104b560048036038101906104b091906128d2565b610e96565b6040516104c2919061287a565b60405180910390f35b3480156104d757600080fd5b506104f260048036038101906104ed9190612ead565b610fa9565b6040516104ff91906127c6565b60405180910390f35b610522600480360381019061051d9190612a2c565b61103d565b005b34801561053057600080fd5b5061054b60048036038101906105469190612a2c565b611362565b6040516105589190612c81565b60405180910390f35b60007f80ac58cd000000000000000000000000000000000000000000000000000000007bffffffffffffffffffffffffffffffffffffffffffffffffffffffff1916827bffffffffffffffffffffffffffffffffffffffffffffffffffffffff1916148061062c57507f5b5e139f000000000000000000000000000000000000000000000000000000007bffffffffffffffffffffffffffffffffffffffffffffffffffffffff1916827bffffffffffffffffffffffffffffffffffffffffffffffffffffffff1916145b8061063c575061063b826114a4565b5b9050919050565b60606000805461065290612f1c565b80601f016020809104026020016040519081016040528092919081815260200182805461067e90612f1c565b80156106cb5780601f106106a0576101008083540402835291602001916106cb565b820191906000526020600020905b8154815290600101906020018083116106ae57829003601f168201915b5050505050905090565b60006106e08261150e565b6004600083815260200190815260200160002060009054906101000a900473ffffffffffffffffffffffffffffffffffffffff169050919050565b600061072682610af3565b90508073ffffffffffffffffffffffffffffffffffffffff168373ffffffffffffffffffffffffffffffffffffffff161415610797576040517f08c379a000000000000000000000000000000000000000000000000000000000815260040161078e90612fc0565b60405180910390fd5b8073ffffffffffffffffffffffffffffffffffffffff166107b6611559565b73ffffffffffffffffffffffffffffffffffffffff1614806107e557506107e4816107df611559565b610fa9565b5b610824576040517f08c379a000000000000000000000000000000000000000000000000000000000815260040161081b90613052565b60405180910390fd5b61082e8383611561565b505050565b6060600c83836040516108479291906130a2565b9081526020016040518091039020805461086090612f1c565b80601f016020809104026020016040519081016040528092919081815260200182805461088c90612f1c565b80156108d95780601f106108ae576101008083540402835291602001916108d9565b820191906000526020600020905b8154815290600101906020018083116108bc57829003601f168201915b5050505050905092915050565b6108f76108f1611559565b8261161a565b610936576040517f08c379a000000000000000000000000000000000000000000000000000000000815260040161092d9061312d565b60405180910390fd5b6109418383836116af565b505050565b600b818051602081018201805184825260208301602085012081835280955050505050506000915054906101000a900473ffffffffffffffffffffffffffffffffffffffff1681565b6008805461099c90612f1c565b80601f01602080910402602001604051908101604052809291908181526020018280546109c890612f1c565b8015610a155780601f106109ea57610100808354040283529160200191610a15565b820191906000526020600020905b8154815290600101906020018083116109f857829003601f168201915b505050505081565b610a3883838360405180602001604052806000815250610d05565b505050565b600c818051602081018201805184825260208301602085012081835280955050505050506000915090508054610a7290612f1c565b80601f0160208091040260200160405190810160405280929190818152602001828054610a9e90612f1c565b8015610aeb5780601f10610ac057610100808354040283529160200191610aeb565b820191906000526020600020905b815481529060010190602001808311610ace57829003601f168201915b505050505081565b6000806002600084815260200190815260200160002060009054906101000a900473ffffffffffffffffffffffffffffffffffffffff169050600073ffffffffffffffffffffffffffffffffffffffff168173ffffffffffffffffffffffffffffffffffffffff161415610b9c576040517f08c379a0000000000000000000000000000000000000000000000000000000008152600401610b9390613199565b60405180910390fd5b80915050919050565b60008073ffffffffffffffffffffffffffffffffffffffff168273ffffffffffffffffffffffffffffffffffffffff161415610c16576040517f08c379a0000000000000000000000000000000000000000000000000000000008152600401610c0d9061322b565b60405180910390fd5b600360008373ffffffffffffffffffffffffffffffffffffffff1673ffffffffffffffffffffffffffffffffffffffff168152602001908152602001600020549050919050565b606060018054610c6c90612f1c565b80601f0160208091040260200160405190810160405280929190818152602001828054610c9890612f1c565b8015610ce55780601f10610cba57610100808354040283529160200191610ce5565b820191906000526020600020905b815481529060010190602001808311610cc857829003601f168201915b5050505050905090565b610d01610cfa611559565b8383611916565b5050565b610d16610d10611559565b8361161a565b610d55576040517f08c379a0000000000000000000000000000000000000000000000000000000008152600401610d4c9061312d565b60405180910390fd5b610d6184848484611a83565b50505050565b6000600b8383604051610d7b9291906130a2565b908152602001604051809103902060009054906101000a900473ffffffffffffffffffffffffffffffffffffffff16905092915050565b3373ffffffffffffffffffffffffffffffffffffffff16600b8585604051610ddb9291906130a2565b908152602001604051809103902060009054906101000a900473ffffffffffffffffffffffffffffffffffffffff1673ffffffffffffffffffffffffffffffffffffffff1614610e60576040517f08c379a0000000000000000000000000000000000000000000000000000000008152600401610e5790613297565b60405180910390fd5b8181600c8686604051610e749291906130a2565b90815260200160405180910390209190610e8f9291906125e9565b5050505050565b6060610ea18261150e565b6000600660008481526020019081526020016000208054610ec190612f1c565b80601f0160208091040260200160405190810160405280929190818152602001828054610eed90612f1c565b8015610f3a5780601f10610f0f57610100808354040283529160200191610f3a565b820191906000526020600020905b815481529060010190602001808311610f1d57829003601f168201915b505050505090506000610f4b611adf565b9050600081511415610f61578192505050610fa4565b600082511115610f96578082604051602001610f7e9291906132e8565b60405160208183030381529060405292505050610fa4565b610f9f84611af6565b925050505b919050565b6000600560008473ffffffffffffffffffffffffffffffffffffffff1673ffffffffffffffffffffffffffffffffffffffff16815260200190815260200160002060008373ffffffffffffffffffffffffffffffffffffffff1673ffffffffffffffffffffffffffffffffffffffff16815260200190815260200160002060009054906101000a900460ff16905092915050565b600073ffffffffffffffffffffffffffffffffffffffff16600b83836040516110679291906130a2565b908152602001604051809103902060009054906101000a900473ffffffffffffffffffffffffffffffffffffffff1673ffffffffffffffffffffffffffffffffffffffff16146110ec576040517f08c379a00000000000000000000000000000000000000000000000000000000081526004016110e390613358565b60405180910390fd5b60006110f88383611362565b90508034101561113d576040517f08c379a0000000000000000000000000000000000000000000000000000000008152600401611134906133c4565b60405180910390fd5b600083836008604051602001611155939291906134c4565b60405160208183030381529060405290506000600982600a60405160200161117f939291906134f5565b6040516020818303038152906040529050600061119c6007611b5e565b905060006111ed87878080601f016020809104026020016040519081016040528093929190818152602001838380828437600081840152601f19601f82011690508083019250505050505050611b6c565b905060006111fa82611d21565b905060006112328661120b87611e82565b8460405160200161121e939291906136a2565b604051602081830303815290604052611e82565b9050600081604051602001611247919061374b565b6040516020818303038152906040529050611279604051806060016040528060398152602001613e306039913961201a565b6112b86040518060400160405280600e81526020017f46696e616c20746f6b656e55524900000000000000000000000000000000000081525082611408565b6112d9604051806060016040528060398152602001613e696039913961201a565b6112e333866120b3565b6112ed85826120d1565b33600b8b8b6040516113009291906130a2565b908152602001604051809103902060006101000a81548173ffffffffffffffffffffffffffffffffffffffff021916908373ffffffffffffffffffffffffffffffffffffffff1602179055506113566007612145565b50505050505050505050565b6000806113b284848080601f016020809104026020016040519081016040528093929190818152602001838380828437600081840152601f19601f82011690508083019250505050505050611b6c565b9050600081116113c157600080fd5b60038114156113db576706f05b59d3b20000915050611402565b60048114156113f557670429d069189e0000915050611402565b67016345785d8a00009150505b92915050565b6114a0828260405160240161141e92919061376d565b6040516020818303038152906040527f4b5c4277000000000000000000000000000000000000000000000000000000007bffffffffffffffffffffffffffffffffffffffffffffffffffffffff19166020820180517bffffffffffffffffffffffffffffffffffffffffffffffffffffffff838183161783525050505061215b565b5050565b60007f01ffc9a7000000000000000000000000000000000000000000000000000000007bffffffffffffffffffffffffffffffffffffffffffffffffffffffff1916827bffffffffffffffffffffffffffffffffffffffffffffffffffffffff1916149050919050565b61151781612184565b611556576040517f08c379a000000000000000000000000000000000000000000000000000000000815260040161154d90613199565b60405180910390fd5b50565b600033905090565b816004600083815260200190815260200160002060006101000a81548173ffffffffffffffffffffffffffffffffffffffff021916908373ffffffffffffffffffffffffffffffffffffffff160217905550808273ffffffffffffffffffffffffffffffffffffffff166115d483610af3565b73ffffffffffffffffffffffffffffffffffffffff167f8c5be1e5ebec7d5bd14f71427d1e84f3dd0314c0f7b2291e5b200ac8c7c3b92560405160405180910390a45050565b60008061162683610af3565b90508073ffffffffffffffffffffffffffffffffffffffff168473ffffffffffffffffffffffffffffffffffffffff16148061166857506116678185610fa9565b5b806116a657508373ffffffffffffffffffffffffffffffffffffffff1661168e846106d5565b73ffffffffffffffffffffffffffffffffffffffff16145b91505092915050565b8273ffffffffffffffffffffffffffffffffffffffff166116cf82610af3565b73ffffffffffffffffffffffffffffffffffffffff1614611725576040517f08c379a000000000000000000000000000000000000000000000000000000000815260040161171c90613816565b60405180910390fd5b600073ffffffffffffffffffffffffffffffffffffffff168273ffffffffffffffffffffffffffffffffffffffff161415611795576040517f08c379a000000000000000000000000000000000000000000000000000000000815260040161178c906138a8565b60405180910390fd5b6117a08383836121f0565b6117ab600082611561565b6001600360008573ffffffffffffffffffffffffffffffffffffffff1673ffffffffffffffffffffffffffffffffffffffff16815260200190815260200160002060008282546117fb91906138f7565b925050819055506001600360008473ffffffffffffffffffffffffffffffffffffffff1673ffffffffffffffffffffffffffffffffffffffff1681526020019081526020016000206000828254611852919061392b565b92505081905550816002600083815260200190815260200160002060006101000a81548173ffffffffffffffffffffffffffffffffffffffff021916908373ffffffffffffffffffffffffffffffffffffffff160217905550808273ffffffffffffffffffffffffffffffffffffffff168473ffffffffffffffffffffffffffffffffffffffff167fddf252ad1be2c89b69c2b068fc378daa952ba7f163c4a11628f55a4df523b3ef60405160405180910390a46119118383836121f5565b505050565b8173ffffffffffffffffffffffffffffffffffffffff168373ffffffffffffffffffffffffffffffffffffffff161415611985576040517f08c379a000000000000000000000000000000000000000000000000000000000815260040161197c906139cd565b60405180910390fd5b80600560008573ffffffffffffffffffffffffffffffffffffffff1673ffffffffffffffffffffffffffffffffffffffff16815260200190815260200160002060008473ffffffffffffffffffffffffffffffffffffffff1673ffffffffffffffffffffffffffffffffffffffff16815260200190815260200160002060006101000a81548160ff0219169083151502179055508173ffffffffffffffffffffffffffffffffffffffff168373ffffffffffffffffffffffffffffffffffffffff167f17307eab39ab6107e8899845ad3d59bd9653f200f220920489ca2b5937696c3183604051611a7691906127c6565b60405180910390a3505050565b611a8e8484846116af565b611a9a848484846121fa565b611ad9576040517f08c379a0000000000000000000000000000000000000000000000000000000008152600401611ad090613a5f565b60405180910390fd5b50505050565b606060405180602001604052806000815250905090565b6060611b018261150e565b6000611b0b611adf565b90506000815111611b2b5760405180602001604052806000815250611b56565b80611b3584611d21565b604051602001611b469291906132e8565b6040516020818303038152906040525b915050919050565b600081600001549050919050565b60008060008084519050600092505b80821015611d16576000858381518110611b9857611b97613a7f565b5b602001015160f81c60f81b9050608060f81b817effffffffffffffffffffffffffffffffffffffffffffffffffffffffffffff19161015611be757600183611be0919061392b565b9250611d02565b60e060f81b817effffffffffffffffffffffffffffffffffffffffffffffffffffffffffffff19161015611c2957600283611c22919061392b565b9250611d01565b60f060f81b817effffffffffffffffffffffffffffffffffffffffffffffffffffffffffffff19161015611c6b57600383611c64919061392b565b9250611d00565b60f8801b817effffffffffffffffffffffffffffffffffffffffffffffffffffffffffffff19161015611cac57600483611ca5919061392b565b9250611cff565b60fc60f81b817effffffffffffffffffffffffffffffffffffffffffffffffffffffffffffff19161015611cee57600583611ce7919061392b565b9250611cfe565b600683611cfb919061392b565b92505b5b5b5b5b508280611d0e90613aae565b935050611b7b565b829350505050919050565b60606000821415611d69576040518060400160405280600181526020017f30000000000000000000000000000000000000000000000000000000000000008152509050611e7d565b600082905060005b60008214611d9b578080611d8490613aae565b915050600a82611d949190613b26565b9150611d71565b60008167ffffffffffffffff811115611db757611db6612ad1565b5b6040519080825280601f01601f191660200182016040528015611de95781602001600182028036833780820191505090505b5090505b60008514611e7657600182611e0291906138f7565b9150600a85611e119190613b57565b6030611e1d919061392b565b60f81b818381518110611e3357611e32613a7f565b5b60200101907effffffffffffffffffffffffffffffffffffffffffffffffffffffffffffff1916908160001a905350600a85611e6f9190613b26565b9450611ded565b8093505050505b919050565b60606000825190506000811415611eab5760405180602001604052806000815250915050612015565b60006003600283611ebc919061392b565b611ec69190613b26565b6004611ed29190613b88565b90506000602082611ee3919061392b565b67ffffffffffffffff811115611efc57611efb612ad1565b5b6040519080825280601f01601f191660200182016040528015611f2e5781602001600182028036833780820191505090505b5090506000604051806060016040528060408152602001613ea2604091399050600181016020830160005b86811015611fd25760038101905062ffffff818a015116603f8160121c168401518060081b905060ff603f83600c1c1686015116810190508060081b905060ff603f8360061c1686015116810190508060081b905060ff603f831686015116810190508060e01b90508084526004840193505050611f59565b506003860660018114611fec5760028114611ffc57612007565b613d3d60f01b6002830352612007565b603d60f81b60018303525b508484525050819450505050505b919050565b6120b08160405160240161202e919061287a565b6040516020818303038152906040527f41304fac000000000000000000000000000000000000000000000000000000007bffffffffffffffffffffffffffffffffffffffffffffffffffffffff19166020820180517bffffffffffffffffffffffffffffffffffffffffffffffffffffffff838183161783525050505061215b565b50565b6120cd828260405180602001604052806000815250612391565b5050565b6120da82612184565b612119576040517f08c379a000000000000000000000000000000000000000000000000000000000815260040161211090613c54565b60405180910390fd5b8060066000848152602001908152602001600020908051906020019061214092919061266f565b505050565b6001816000016000828254019250508190555050565b60008151905060006a636f6e736f6c652e6c6f679050602083016000808483855afa5050505050565b60008073ffffffffffffffffffffffffffffffffffffffff166002600084815260200190815260200160002060009054906101000a900473ffffffffffffffffffffffffffffffffffffffff1673ffffffffffffffffffffffffffffffffffffffff1614159050919050565b505050565b505050565b600061221b8473ffffffffffffffffffffffffffffffffffffffff166123ec565b15612384578373ffffffffffffffffffffffffffffffffffffffff1663150b7a02612244611559565b8786866040518563ffffffff1660e01b81526004016122669493929190613cc9565b602060405180830381600087803b15801561228057600080fd5b505af19250505080156122b157506040513d601f19601f820116820180604052508101906122ae9190613d2a565b60015b612334573d80600081146122e1576040519150601f19603f3d011682016040523d82523d6000602084013e6122e6565b606091505b5060008151141561232c576040517f08c379a000000000000000000000000000000000000000000000000000000000815260040161232390613a5f565b60405180910390fd5b805181602001fd5b63150b7a0260e01b7bffffffffffffffffffffffffffffffffffffffffffffffffffffffff1916817bffffffffffffffffffffffffffffffffffffffffffffffffffffffff191614915050612389565b600190505b949350505050565b61239b838361240f565b6123a860008484846121fa565b6123e7576040517f08c379a00000000000000000000000000000000000000000000000000000000081526004016123de90613a5f565b60405180910390fd5b505050565b6000808273ffffffffffffffffffffffffffffffffffffffff163b119050919050565b600073ffffffffffffffffffffffffffffffffffffffff168273ffffffffffffffffffffffffffffffffffffffff16141561247f576040517f08c379a000000000000000000000000000000000000000000000000000000000815260040161247690613da3565b60405180910390fd5b61248881612184565b156124c8576040517f08c379a00000000000000000000000000000000000000000000000000000000081526004016124bf90613e0f565b60405180910390fd5b6124d4600083836121f0565b6001600360008473ffffffffffffffffffffffffffffffffffffffff1673ffffffffffffffffffffffffffffffffffffffff1681526020019081526020016000206000828254612524919061392b565b92505081905550816002600083815260200190815260200160002060006101000a81548173ffffffffffffffffffffffffffffffffffffffff021916908373ffffffffffffffffffffffffffffffffffffffff160217905550808273ffffffffffffffffffffffffffffffffffffffff16600073ffffffffffffffffffffffffffffffffffffffff167fddf252ad1be2c89b69c2b068fc378daa952ba7f163c4a11628f55a4df523b3ef60405160405180910390a46125e5600083836121f5565b5050565b8280546125f590612f1c565b90600052602060002090601f016020900481019282612617576000855561265e565b82601f1061263057803560ff191683800117855561265e565b8280016001018555821561265e579182015b8281111561265d578235825591602001919060010190612642565b5b50905061266b91906126f5565b5090565b82805461267b90612f1c565b90600052602060002090601f01602090048101928261269d57600085556126e4565b82601f106126b657805160ff19168380011785556126e4565b828001600101855582156126e4579182015b828111156126e35782518255916020019190600101906126c8565b5b5090506126f191906126f5565b5090565b5b8082111561270e5760008160009055506001016126f6565b5090565b6000604051905090565b600080fd5b600080fd5b60007fffffffff0000000000000000000000000000000000000000000000000000000082169050919050565b61275b81612726565b811461276657600080fd5b50565b60008135905061277881612752565b92915050565b6000602082840312156127945761279361271c565b5b60006127a284828501612769565b91505092915050565b60008115159050919050565b6127c0816127ab565b82525050565b60006020820190506127db60008301846127b7565b92915050565b600081519050919050565b600082825260208201905092915050565b60005b8381101561281b578082015181840152602081019050612800565b8381111561282a576000848401525b50505050565b6000601f19601f8301169050919050565b600061284c826127e1565b61285681856127ec565b93506128668185602086016127fd565b61286f81612830565b840191505092915050565b600060208201905081810360008301526128948184612841565b905092915050565b6000819050919050565b6128af8161289c565b81146128ba57600080fd5b50565b6000813590506128cc816128a6565b92915050565b6000602082840312156128e8576128e761271c565b5b60006128f6848285016128bd565b91505092915050565b600073ffffffffffffffffffffffffffffffffffffffff82169050919050565b600061292a826128ff565b9050919050565b61293a8161291f565b82525050565b60006020820190506129556000830184612931565b92915050565b6129648161291f565b811461296f57600080fd5b50565b6000813590506129818161295b565b92915050565b6000806040838503121561299e5761299d61271c565b5b60006129ac85828601612972565b92505060206129bd858286016128bd565b9150509250929050565b600080fd5b600080fd5b600080fd5b60008083601f8401126129ec576129eb6129c7565b5b8235905067ffffffffffffffff811115612a0957612a086129cc565b5b602083019150836001820283011115612a2557612a246129d1565b5b9250929050565b60008060208385031215612a4357612a4261271c565b5b600083013567ffffffffffffffff811115612a6157612a60612721565b5b612a6d858286016129d6565b92509250509250929050565b600080600060608486031215612a9257612a9161271c565b5b6000612aa086828701612972565b9350506020612ab186828701612972565b9250506040612ac2868287016128bd565b9150509250925092565b600080fd5b7f4e487b7100000000000000000000000000000000000000000000000000000000600052604160045260246000fd5b612b0982612830565b810181811067ffffffffffffffff82111715612b2857612b27612ad1565b5b80604052505050565b6000612b3b612712565b9050612b478282612b00565b919050565b600067ffffffffffffffff821115612b6757612b66612ad1565b5b612b7082612830565b9050602081019050919050565b82818337600083830152505050565b6000612b9f612b9a84612b4c565b612b31565b905082815260208101848484011115612bbb57612bba612acc565b5b612bc6848285612b7d565b509392505050565b600082601f830112612be357612be26129c7565b5b8135612bf3848260208601612b8c565b91505092915050565b600060208284031215612c1257612c1161271c565b5b600082013567ffffffffffffffff811115612c3057612c2f612721565b5b612c3c84828501612bce565b91505092915050565b600060208284031215612c5b57612c5a61271c565b5b6000612c6984828501612972565b91505092915050565b612c7b8161289c565b82525050565b6000602082019050612c966000830184612c72565b92915050565b612ca5816127ab565b8114612cb057600080fd5b50565b600081359050612cc281612c9c565b92915050565b60008060408385031215612cdf57612cde61271c565b5b6000612ced85828601612972565b9250506020612cfe85828601612cb3565b9150509250929050565b600067ffffffffffffffff821115612d2357612d22612ad1565b5b612d2c82612830565b9050602081019050919050565b6000612d4c612d4784612d08565b612b31565b905082815260208101848484011115612d6857612d67612acc565b5b612d73848285612b7d565b509392505050565b600082601f830112612d9057612d8f6129c7565b5b8135612da0848260208601612d39565b91505092915050565b60008060008060808587031215612dc357612dc261271c565b5b6000612dd187828801612972565b9450506020612de287828801612972565b9350506040612df3878288016128bd565b925050606085013567ffffffffffffffff811115612e1457612e13612721565b5b612e2087828801612d7b565b91505092959194509250565b60008060008060408587031215612e4657612e4561271c565b5b600085013567ffffffffffffffff811115612e6457612e63612721565b5b612e70878288016129d6565b9450945050602085013567ffffffffffffffff811115612e9357612e92612721565b5b612e9f878288016129d6565b925092505092959194509250565b60008060408385031215612ec457612ec361271c565b5b6000612ed285828601612972565b9250506020612ee385828601612972565b9150509250929050565b7f4e487b7100000000000000000000000000000000000000000000000000000000600052602260045260246000fd5b60006002820490506001821680612f3457607f821691505b60208210811415612f4857612f47612eed565b5b50919050565b7f4552433732313a20617070726f76616c20746f2063757272656e74206f776e6560008201527f7200000000000000000000000000000000000000000000000000000000000000602082015250565b6000612faa6021836127ec565b9150612fb582612f4e565b604082019050919050565b60006020820190508181036000830152612fd981612f9d565b9050919050565b7f4552433732313a20617070726f76652063616c6c6572206973206e6f7420746f60008201527f6b656e206f776e6572206e6f7220617070726f76656420666f7220616c6c0000602082015250565b600061303c603e836127ec565b915061304782612fe0565b604082019050919050565b6000602082019050818103600083015261306b8161302f565b9050919050565b600081905092915050565b60006130898385613072565b9350613096838584612b7d565b82840190509392505050565b60006130af82848661307d565b91508190509392505050565b7f4552433732313a2063616c6c6572206973206e6f7420746f6b656e206f776e6560008201527f72206e6f7220617070726f766564000000000000000000000000000000000000602082015250565b6000613117602e836127ec565b9150613122826130bb565b604082019050919050565b600060208201905081810360008301526131468161310a565b9050919050565b7f4552433732313a20696e76616c696420746f6b656e2049440000000000000000600082015250565b60006131836018836127ec565b915061318e8261314d565b602082019050919050565b600060208201905081810360008301526131b281613176565b9050919050565b7f4552433732313a2061646472657373207a65726f206973206e6f74206120766160008201527f6c6964206f776e65720000000000000000000000000000000000000000000000602082015250565b60006132156029836127ec565b9150613220826131b9565b604082019050919050565b6000602082019050818103600083015261324481613208565b9050919050565b7f6e6f74206f776e65720000000000000000000000000000000000000000000000600082015250565b60006132816009836127ec565b915061328c8261324b565b602082019050919050565b600060208201905081810360008301526132b081613274565b9050919050565b60006132c2826127e1565b6132cc8185613072565b93506132dc8185602086016127fd565b80840191505092915050565b60006132f482856132b7565b915061330082846132b7565b91508190509392505050565b7f616c726561647920726567697374657265640000000000000000000000000000600082015250565b60006133426012836127ec565b915061334d8261330c565b602082019050919050565b6000602082019050818103600083015261337181613335565b9050919050565b7f6e6f7420656e6f756768204d6174696320706169640000000000000000000000600082015250565b60006133ae6015836127ec565b91506133b982613378565b602082019050919050565b600060208201905081810360008301526133dd816133a1565b9050919050565b7f2e00000000000000000000000000000000000000000000000000000000000000600082015250565b600061341a600183613072565b9150613425826133e4565b600182019050919050565b60008190508160005260206000209050919050565b6000815461345281612f1c565b61345c8186613072565b945060018216600081146134775760018114613488576134bb565b60ff198316865281860193506134bb565b61349185613430565b60005b838110156134b357815481890152600182019150602081019050613494565b838801955050505b50505092915050565b60006134d182858761307d565b91506134dc8261340d565b91506134e88284613445565b9150819050949350505050565b60006135018286613445565b915061350d82856132b7565b91506135198284613445565b9150819050949350505050565b7f7b226e616d65223a202200000000000000000000000000000000000000000000600082015250565b600061355c600a83613072565b915061356782613526565b600a82019050919050565b7f222c20226465736372697074696f6e223a20224120646f6d61696e206f6e207460008201527f686520414258206e616d652073657276696365222c2022696d616765223a202260208201527f646174613a696d6167652f7376672b786d6c3b6261736536342c000000000000604082015250565b60006135f4605a83613072565b91506135ff82613572565b605a82019050919050565b7f222c226c656e677468223a220000000000000000000000000000000000000000600082015250565b6000613640600c83613072565b915061364b8261360a565b600c82019050919050565b7f227d000000000000000000000000000000000000000000000000000000000000600082015250565b600061368c600283613072565b915061369782613656565b600282019050919050565b60006136ad8261354f565b91506136b982866132b7565b91506136c4826135e7565b91506136d082856132b7565b91506136db82613633565b91506136e782846132b7565b91506136f28261367f565b9150819050949350505050565b7f646174613a6170706c69636174696f6e2f6a736f6e3b6261736536342c000000600082015250565b6000613735601d83613072565b9150613740826136ff565b601d82019050919050565b600061375682613728565b915061376282846132b7565b915081905092915050565b600060408201905081810360008301526137878185612841565b9050818103602083015261379b8184612841565b90509392505050565b7f4552433732313a207472616e736665722066726f6d20696e636f72726563742060008201527f6f776e6572000000000000000000000000000000000000000000000000000000602082015250565b60006138006025836127ec565b915061380b826137a4565b604082019050919050565b6000602082019050818103600083015261382f816137f3565b9050919050565b7f4552433732313a207472616e7366657220746f20746865207a65726f2061646460008201527f7265737300000000000000000000000000000000000000000000000000000000602082015250565b60006138926024836127ec565b915061389d82613836565b604082019050919050565b600060208201905081810360008301526138c181613885565b9050919050565b7f4e487b7100000000000000000000000000000000000000000000000000000000600052601160045260246000fd5b60006139028261289c565b915061390d8361289c565b9250828210156139205761391f6138c8565b5b828203905092915050565b60006139368261289c565b91506139418361289c565b9250827fffffffffffffffffffffffffffffffffffffffffffffffffffffffffffffffff03821115613976576139756138c8565b5b828201905092915050565b7f4552433732313a20617070726f766520746f2063616c6c657200000000000000600082015250565b60006139b76019836127ec565b91506139c282613981565b602082019050919050565b600060208201905081810360008301526139e6816139aa565b9050919050565b7f4552433732313a207472616e7366657220746f206e6f6e20455243373231526560008201527f63656976657220696d706c656d656e7465720000000000000000000000000000602082015250565b6000613a496032836127ec565b9150613a54826139ed565b604082019050919050565b60006020820190508181036000830152613a7881613a3c565b9050919050565b7f4e487b7100000000000000000000000000000000000000000000000000000000600052603260045260246000fd5b6000613ab98261289c565b91507fffffffffffffffffffffffffffffffffffffffffffffffffffffffffffffffff821415613aec57613aeb6138c8565b5b600182019050919050565b7f4e487b7100000000000000000000000000000000000000000000000000000000600052601260045260246000fd5b6000613b318261289c565b9150613b3c8361289c565b925082613b4c57613b4b613af7565b5b828204905092915050565b6000613b628261289c565b9150613b6d8361289c565b925082613b7d57613b7c613af7565b5b828206905092915050565b6000613b938261289c565b9150613b9e8361289c565b9250817fffffffffffffffffffffffffffffffffffffffffffffffffffffffffffffffff0483118215151615613bd757613bd66138c8565b5b828202905092915050565b7f45524337323155524953746f726167653a2055524920736574206f66206e6f6e60008201527f6578697374656e7420746f6b656e000000000000000000000000000000000000602082015250565b6000613c3e602e836127ec565b9150613c4982613be2565b604082019050919050565b60006020820190508181036000830152613c6d81613c31565b9050919050565b600081519050919050565b600082825260208201905092915050565b6000613c9b82613c74565b613ca58185613c7f565b9350613cb58185602086016127fd565b613cbe81612830565b840191505092915050565b6000608082019050613cde6000830187612931565b613ceb6020830186612931565b613cf86040830185612c72565b8181036060830152613d0a8184613c90565b905095945050505050565b600081519050613d2481612752565b92915050565b600060208284031215613d4057613d3f61271c565b5b6000613d4e84828501613d15565b91505092915050565b7f4552433732313a206d696e7420746f20746865207a65726f2061646472657373600082015250565b6000613d8d6020836127ec565b9150613d9882613d57565b602082019050919050565b60006020820190508181036000830152613dbc81613d80565b9050919050565b7f4552433732313a20746f6b656e20616c7265616479206d696e74656400000000600082015250565b6000613df9601c836127ec565b9150613e0482613dc3565b602082019050919050565b60006020820190508181036000830152613e2881613dec565b905091905056fe0a2d2d2d2d2d2d2d2d2d2d2d2d2d2d2d2d2d2d2d2d2d2d2d2d2d2d2d2d2d2d2d2d2d2d2d2d2d2d2d2d2d2d2d2d2d2d2d2d2d2d2d2d2d2d2d2d2d2d2d2d2d2d2d2d2d2d2d2d2d2d2d2d2d2d2d2d2d2d2d2d2d2d2d2d2d2d2d2d2d2d2d2d2d2d2d2d2d2d2d2d2d2d2d2d2d2d2d2d2d2d2d2d0a4142434445464748494a4b4c4d4e4f505152535455565758595a6162636465666768696a6b6c6d6e6f707172737475767778797a303132333435363738392b2fa2646970667358221220b530ffd6be3a1c63be65678cbb9823dd90d3d1cb45ce4d890b0793c3423d0ec364736f6c634300080900333c73766720786d6c6e733d22687474703a2f2f7777772e77332e6f72672f323030302f737667222077696474683d2232373022206865696768743d22323730222066696c6c3d226e6f6e65223e3c706174682066696c6c3d2275726c282342292220643d224d302030683237307632373048307a222f3e3c646566733e3c66696c7465722069643d22412220636f6c6f722d696e746572706f6c6174696f6e2d66696c746572733d2273524742222066696c746572556e6974733d227573657253706163654f6e55736522206865696768743d22323730222077696474683d22323730223e3c666544726f70536861646f772064783d2230222064793d22312220737464446576696174696f6e3d22322220666c6f6f642d6f7061636974793d222e323235222077696474683d223230302522206865696768743d2232303025222f3e3c2f66696c7465723e3c2f646566733e3c7061746820643d224d37322e3836332034322e393439632d2e3636382d2e3338372d312e3432362d2e35392d322e3139372d2e3539732d312e3532392e3230342d322e3139372e35396c2d31302e30383120362e3033322d362e383520332e3933342d31302e30383120362e303332632d2e3636382e3338372d312e3432362e35392d322e3139372e3539732d312e3532392d2e3230342d322e3139372d2e35396c2d382e3031332d342e37323161342e353220342e35322030203020312d312e3538392d312e363136632d2e3338342d2e3636352d2e3539342d312e3431382d2e3630382d322e313837762d392e3331632d2e3031332d2e3737352e3138352d312e3533382e3537322d322e32303861342e323520342e323520302030203120312e3632352d312e3539356c372e3838342d342e3539632e3636382d2e33383720312e3432362d2e353920322e3139372d2e353973312e3532392e32303420322e3139372e35396c372e38383420342e353961342e353220342e353220302030203120312e35383920312e363136632e3338342e3636352e35393420312e3431382e36303820322e31383776362e3033326c362e38352d342e303635762d362e303332632e3031332d2e3737352d2e3138352d312e3533382d2e3537322d322e32303861342e323520342e32352030203020302d312e3632352d312e3539354c34312e3435362032342e3539632d2e3636382d2e3338372d312e3432362d2e35392d322e3139372d2e3539732d312e3532392e3230342d322e3139372e35396c2d31342e38363420382e36353561342e323520342e32352030203020302d312e36323520312e353935632d2e3338372e36372d2e35383520312e3433342d2e35373220322e3230387631372e343431632d2e3031332e3737352e31383520312e3533382e35373220322e32303861342e323520342e323520302030203020312e36323520312e3539356c31342e38363420382e363535632e3636382e33383720312e3432362e353920322e3139372e353973312e3532392d2e32303420322e3139372d2e35396c31302e3038312d352e39303120362e38352d342e3036352031302e3038312d352e393031632e3636382d2e33383720312e3432362d2e353920322e3139372d2e353973312e3532392e32303420322e3139372e35396c372e38383420342e353961342e353220342e353220302030203120312e35383920312e363136632e3338342e3636352e35393420312e3431382e36303820322e31383776392e333131632e3031332e3737352d2e31383520312e3533382d2e35373220322e32303861342e323520342e32352030203020312d312e36323520312e3539356c2d372e38383420342e373231632d2e3636382e3338372d312e3432362e35392d322e3139372e3539732d312e3532392d2e3230342d322e3139372d2e35396c2d372e3838342d342e353961342e353220342e35322030203020312d312e3538392d312e363136632d2e3338352d2e3636352d2e3539342d312e3431382d2e3630382d322e313837762d362e3033326c2d362e383520342e30363576362e303332632d2e3031332e3737352e31383520312e3533382e35373220322e32303861342e323520342e323520302030203020312e36323520312e3539356c31342e38363420382e363535632e3636382e33383720312e3432362e353920322e3139372e353973312e3532392d2e32303420322e3139372d2e35396c31342e3836342d382e363535632e3635372d2e33393420312e3230342d2e393520312e3538392d312e363136732e3539342d312e3431382e3630392d322e3138375635352e353338632e3031332d2e3737352d2e3138352d312e3533382d2e3537322d322e32303861342e323520342e32352030203020302d312e3632352d312e3539356c2d31342e3939332d382e3738367a222066696c6c3d2223666666222f3e3c646566733e3c6c696e6561724772616469656e742069643d2242222078313d2230222079313d2230222078323d22323730222079323d2232373022206772616469656e74556e6974733d227573657253706163654f6e557365223e3c73746f702073746f702d636f6c6f723d2223636235656565222f3e3c73746f70206f66667365743d2231222073746f702d636f6c6f723d2223306364376534222073746f702d6f7061636974793d222e3939222f3e3c2f6c696e6561724772616469656e743e3c2f646566733e3c7465787420783d2233322e352220793d223233312220666f6e742d73697a653d223237222066696c6c3d2223666666222066696c7465723d2275726c282341292220666f6e742d66616d696c793d22506c7573204a616b617274612053616e732c44656a6156752053616e732c4e6f746f20436f6c6f7220456d6f6a692c4170706c6520436f6c6f7220456d6f6a692c73616e732d73657269662220666f6e742d7765696768743d22626f6c64223e",
    "linkReferences": {},
    "deployedLinkReferences": {}
}